{
  "contractName": "Tickets",
  "abi": [
    {
      "inputs": [],
      "payable": false,
      "stateMutability": "nonpayable",
      "type": "constructor"
    },
    {
      "constant": false,
      "inputs": [],
      "name": "endContract",
      "outputs": [],
      "payable": false,
      "stateMutability": "nonpayable",
      "type": "function"
    },
    {
      "constant": false,
      "inputs": [
        {
          "internalType": "string",
          "name": "lastName",
          "type": "string"
        },
        {
          "internalType": "string",
          "name": "surName",
          "type": "string"
        },
        {
          "internalType": "uint256",
          "name": "age",
          "type": "uint256"
        }
      ],
      "name": "createCustomer",
      "outputs": [],
      "payable": true,
      "stateMutability": "payable",
      "type": "function"
    },
    {
      "constant": true,
      "inputs": [
        {
          "internalType": "uint256",
          "name": "index",
          "type": "uint256"
        }
      ],
      "name": "getCustomer",
      "outputs": [
        {
          "internalType": "string",
          "name": "lastName",
          "type": "string"
        },
        {
          "internalType": "string",
          "name": "surName",
          "type": "string"
        },
        {
          "internalType": "uint256",
          "name": "age",
          "type": "uint256"
        },
        {
          "internalType": "address",
          "name": "money",
          "type": "address"
        }
      ],
      "payable": false,
      "stateMutability": "view",
      "type": "function"
    },
    {
      "constant": false,
      "inputs": [],
      "name": "withdrawAll",
      "outputs": [],
      "payable": false,
      "stateMutability": "nonpayable",
      "type": "function"
    },
    {
      "constant": true,
      "inputs": [],
      "name": "ticketsLeft",
      "outputs": [
        {
          "internalType": "uint256",
          "name": "count",
          "type": "uint256"
        }
      ],
      "payable": false,
      "stateMutability": "view",
      "type": "function"
    },
    {
      "constant": false,
      "inputs": [
        {
          "internalType": "uint256",
          "name": "index",
          "type": "uint256"
        }
      ],
      "name": "deleteCustomer",
      "outputs": [],
      "payable": false,
      "stateMutability": "nonpayable",
      "type": "function"
    }
  ],
  "bytecode": "0x608060405234801561001057600080fd5b50336000806101000a81548173ffffffffffffffffffffffffffffffffffffffff021916908373ffffffffffffffffffffffffffffffffffffffff160217905550610ca3806100606000396000f3fe6080604052600436106100555760003560e01c806356d7548f1461005a5780636cab5e5b14610095578063853828b6146100c0578063a18c5d59146100d7578063bb6e7de914610233578063eb876f271461024a575b600080fd5b34801561006657600080fd5b506100936004803603602081101561007d57600080fd5b81019080803590602001909291905050506103a4565b005b3480156100a157600080fd5b506100aa6105f5565b6040518082815260200191505060405180910390f35b3480156100cc57600080fd5b506100d5610608565b005b610231600480360360608110156100ed57600080fd5b810190808035906020019064010000000081111561010a57600080fd5b82018360208201111561011c57600080fd5b8035906020019184600183028401116401000000008311171561013e57600080fd5b91908080601f016020809104026020016040519081016040528093929190818152602001838380828437600081840152601f19601f820116905080830192505050505050509192919290803590602001906401000000008111156101a157600080fd5b8201836020820111156101b357600080fd5b803590602001918460018302840111640100000000831117156101d557600080fd5b91908080601f016020809104026020016040519081016040528093929190818152602001838380828437600081840152601f19601f820116905080830192505050505050509192919290803590602001909291905050506106ba565b005b34801561023f57600080fd5b5061024861087e565b005b34801561025657600080fd5b506102836004803603602081101561026d57600080fd5b81019080803590602001909291905050506108f0565b6040518080602001806020018581526020018473ffffffffffffffffffffffffffffffffffffffff1673ffffffffffffffffffffffffffffffffffffffff168152602001838103835287818151815260200191508051906020019080838360005b838110156102ff5780820151818401526020810190506102e4565b50505050905090810190601f16801561032c5780820380516001836020036101000a031916815260200191505b50838103825286818151815260200191508051906020019080838360005b8381101561036557808201518184015260208101905061034a565b50505050905090810190601f1680156103925780820380516001836020036101000a031916815260200191505b50965050505050505060405180910390f35b6000809054906101000a900473ffffffffffffffffffffffffffffffffffffffff1673ffffffffffffffffffffffffffffffffffffffff163373ffffffffffffffffffffffffffffffffffffffff16146103fd57600080fd5b60196002828154811061040c57fe5b906000526020600020906006020160040154116104c8576701f161421c8e0000600154036001819055506002818154811061044357fe5b906000526020600020906006020160000160009054906101000a900473ffffffffffffffffffffffffffffffffffffffff1673ffffffffffffffffffffffffffffffffffffffff166108fc6701f161421c8e00009081150290604051600060405180830381858888f193505050501580156104c2573d6000803e3d6000fd5b50610569565b6704fefa17b724000060015403600181905550600281815481106104e857fe5b906000526020600020906006020160000160009054906101000a900473ffffffffffffffffffffffffffffffffffffffff1673ffffffffffffffffffffffffffffffffffffffff166108fc6704fefa17b72400009081150290604051600060405180830381858888f19350505050158015610567573d6000803e3d6000fd5b505b6002818154811061057657fe5b9060005260206000209060060201600080820160006101000a81549073ffffffffffffffffffffffffffffffffffffffff021916905560018201600090556002820160006105c49190610b33565b6003820160006105d49190610b33565b60048201600090556005820160006101000a81549060ff0219169055505050565b6000600280549050606403905080905090565b6000809054906101000a900473ffffffffffffffffffffffffffffffffffffffff1673ffffffffffffffffffffffffffffffffffffffff163373ffffffffffffffffffffffffffffffffffffffff161461066157600080fd5b6000600154905060006001819055503373ffffffffffffffffffffffffffffffffffffffff166108fc829081150290604051600060405180830381858888f193505050501580156106b6573d6000803e3d6000fd5b5050565b6064600280549050106106cc57600080fd5b346001600082825401925050819055506106e4610b7b565b83816040018190525082816060018190525081816080018181525050601982116107335760018160a00190151590811515815250506701f161421c8e000034101561072e57600080fd5b61075a565b60008160a00190151590811515815250506704fefa17b724000034101561075957600080fd5b5b33816000019073ffffffffffffffffffffffffffffffffffffffff16908173ffffffffffffffffffffffffffffffffffffffff16815250506002819080600181540180825580915050906001820390600052602060002090600602016000909192909190915060008201518160000160006101000a81548173ffffffffffffffffffffffffffffffffffffffff021916908373ffffffffffffffffffffffffffffffffffffffff16021790555060208201518160010155604082015181600201908051906020019061082d929190610bc9565b50606082015181600301908051906020019061084a929190610bc9565b506080820151816004015560a08201518160050160006101000a81548160ff02191690831515021790555050505050505050565b6000809054906101000a900473ffffffffffffffffffffffffffffffffffffffff1673ffffffffffffffffffffffffffffffffffffffff163373ffffffffffffffffffffffffffffffffffffffff16146108d757600080fd5b3373ffffffffffffffffffffffffffffffffffffffff16ff5b6060806000806000809054906101000a900473ffffffffffffffffffffffffffffffffffffffff1673ffffffffffffffffffffffffffffffffffffffff163373ffffffffffffffffffffffffffffffffffffffff161461094f57600080fd5b6002858154811061095c57fe5b90600052602060002090600602016002016002868154811061097a57fe5b90600052602060002090600602016003016002878154811061099857fe5b906000526020600020906006020160040154600288815481106109b757fe5b906000526020600020906006020160000160009054906101000a900473ffffffffffffffffffffffffffffffffffffffff16838054600181600116156101000203166002900480601f016020809104026020016040519081016040528092919081815260200182805460018160011615610100020316600290048015610a7e5780601f10610a5357610100808354040283529160200191610a7e565b820191906000526020600020905b815481529060010190602001808311610a6157829003601f168201915b50505050509350828054600181600116156101000203166002900480601f016020809104026020016040519081016040528092919081815260200182805460018160011615610100020316600290048015610b1a5780601f10610aef57610100808354040283529160200191610b1a565b820191906000526020600020905b815481529060010190602001808311610afd57829003601f168201915b5050505050925080905093509350935093509193509193565b50805460018160011615610100020316600290046000825580601f10610b595750610b78565b601f016020900490600052602060002090810190610b779190610c49565b5b50565b6040518060c00160405280600073ffffffffffffffffffffffffffffffffffffffff168152602001600081526020016060815260200160608152602001600081526020016000151581525090565b828054600181600116156101000203166002900490600052602060002090601f016020900481019282601f10610c0a57805160ff1916838001178555610c38565b82800160010185558215610c38579182015b82811115610c37578251825591602001919060010190610c1c565b5b509050610c459190610c49565b5090565b610c6b91905b80821115610c67576000816000905550600101610c4f565b5090565b9056fea265627a7a72315820f80018d64fbfed72e73222edf4f87d67fbb59f4a21d489a618d8ba94fe3a61ad64736f6c634300050c0032",
  "source": "pragma solidity 0.5.12;\r\n\r\ncontract Tickets{\r\n\r\n\r\n    address internal owner;\r\n\r\n    modifier onlyOwner(){\r\n      require(msg.sender == owner);\r\n      _;\r\n    }\r\n\r\n    constructor() public {\r\n      owner = msg.sender;\r\n    }\r\n\r\n    function endContract() public onlyOwner {\r\n    selfdestruct(msg.sender);\r\n    }\r\n\r\n\r\n    struct Customer{\r\n        address payable money;\r\n        uint id;\r\n        string lastName;\r\n        string surName;\r\n        uint age;\r\n        bool young;\r\n    }\r\n\r\n    uint private balance;\r\n\r\n    Customer [] private contacters;\r\n\r\n    function createCustomer(string memory lastName, string memory surName, uint age) public payable{\r\n\r\n        require(contacters.length<100);\r\n\r\n        balance += msg.value;\r\n\r\n        Customer memory newCustomer;\r\n        newCustomer.lastName = lastName;\r\n        newCustomer.surName = surName;\r\n        newCustomer.age = age;\r\n\r\n        if(age <= 25){\r\n            newCustomer.young = true;\r\n            require(msg.value >= 140000000000000000 wei);\r\n        }\r\n        else {\r\n            newCustomer.young = false;\r\n            require(msg.value >= 360000000000000000 wei);\r\n        }\r\n        newCustomer.money = msg.sender;\r\n\r\n        contacters.push(newCustomer);\r\n\r\n    }\r\n\r\n\r\n    function getCustomer(uint index) public view onlyOwner returns(string memory lastName, string memory surName, uint age, address money){\r\n\r\n        return (contacters[index].lastName, contacters[index].surName, contacters[index].age, contacters[index].money);\r\n\r\n    }\r\n\r\n    function withdrawAll() public onlyOwner{\r\n\r\n        uint toTransfer = balance;\r\n        balance = 0;\r\n        msg.sender.transfer(toTransfer);\r\n\r\n    }\r\n\r\n    function ticketsLeft() public view returns(uint count) {\r\n\r\n        count = 100 - contacters.length;\r\n        return count;\r\n\r\n    }\r\n\r\n    function deleteCustomer (uint index) public onlyOwner {\r\n\r\n        if (contacters[index].age <= 25){\r\n            balance = balance - 140000000000000000 wei;\r\n            contacters[index].money.transfer(140000000000000000 wei);\r\n        }\r\n        else {\r\n            balance = balance - 360000000000000000 wei;\r\n            contacters[index].money.transfer(360000000000000000 wei);\r\n        }\r\n\r\n        delete contacters[index];\r\n\r\n    }\r\n\r\n}\r\n",
  "sourcePath": "C:/Users/Anwender/Desktop/Code/ticket/Solidity/contracts/Ticket.sol",
  "compiler": {
    "name": "solc",
    "version": "0.5.12+commit.7709ece9.Emscripten.clang"
  },
  "schemaVersion": "3.0.16",
  "updatedAt": "2020-05-24T17:32:53.267Z",
  "devdoc": {
    "methods": {}
  },
  "userdoc": {
    "methods": {}
  }
}